S5017706021****************************************************************************************************SA0563876100SA05638761#JPCA0102R171010191300001050604099999017101170920180214 10191323203             506040EO1000506040EO100010191323203 10072596  000000B015C95F010000000000                                               　　　　　　　　　　　　　　　　　　　　　　31552597  00000000000000001      TRAEG                                                                 　　　　　　　　　　　　　　　　　　　　　　　　　　　　　　　　　　　           *CD16160003 ｲｾｷｭｳ ﾐｼﾏ                               　　　　　　　　　　　　　　　　　　　　711                                                           　　　　　　　　　　　　　　　　　　　　                                                    　　　　　　　　　　　　　　　　　　　　1710151710313171215215/031/D045    20000000240000KG 1 00000000000000000000000000 00000000000000000000000000*C134250023 ｱｻﾋｶｾｲ ﾌｼﾞ                              　　　　　　　　　　　　　　　　　　　　                                                                            　　　　　　　　　　　　　　　　　　　　　　　　　　　　　　　　　　　　　                                          0000000000          170921                                            　　　　　　　　　　　　　　　　　　　　　　0000000000000                                                                                                  0000000          00000011250000000000000000KG 00000011250000000001125000DR        0000000225000000000027000000000000000000000000021600000000029160011111 1000017092191664899                 91664899                                                   　　　　　　　　　　　　　　　　　　　　　　                                                    1                                                                                                                                                                                                                                                                                                                                                                                                                                                                                                                                                                                                                                                                                                                                                                                                                                                                                                                                                                                                                                                                                                                                                                                                                                                                                                                                                                                                                                                                                                                                                                                                                                                                                                                                                                                                                                                                                                                                                                                                                                                                                                                                                                                                                                                                                                                                                                                                                      631339    
S5017706032****************************************************************************************************SA0563525300SA05635253#JPCA0102R171010191300001050604099999017101170919180221 10191323201             506040AA2000506040AA200010191323201 10066442  000000B01596F2010000000000                                               　　　　　　　　　　　　　　　　　　　　　　31545883  00000000000000001      AEH-15 ｱｸﾘﾙｻﾝ2ｴﾁﾙﾍｷｼﾙ MEHQ 15                                         　　　　　　　　　　　　　　　　　　　　　　　　　　　　　　　　　　　           *CE28760003 ｽﾘｰｴﾑｼﾞｬﾊﾟﾝﾌﾟﾛﾀﾞｸﾂｲﾜﾃ                   　　　　　　　　　　　　　　　　　　　　4500924445                                                    　　　　　　　　　　　　　　　　　　　　                                                    　　　　　　　　　　　　　　　　　　　　1710151710313171215215/031/D045    10000000228000KG 1 00000000000000000000000000 00000000000000000000000000*CE28760003 ｽﾘｰｴﾑｼﾞｬﾊﾟﾝﾌﾟﾛﾀﾞｸﾂｲﾜﾃ                   　　　　　　　　　　　　　　　　　　　　                                                                            　　　　　　　　　　　　　　　　　　　　　　　　　　　　　　　　　　　　　                                          0000000000          170921                                            　　　　　　　　　　　　　　　　　　　　　　0000000000000                                                                                                  0000000          00000010200000000000000000KG 00000010200000000001020000DR        0000000170000000000023256000000000000000000000018604000000025116411111 1000017092191664712                 91664712                                                   　　　　　　　　　　　　　　　　　　　　　　                                                    1                                                                                                                                                                                                                                                                                                                                                                                                                                                                                                                                                                                                                                                                                                                                                                                                                                                                                                                                                                                                                                                                                                                                                                                                                                                                                                                                                                                                                                                                                                                                                                                                                                                                                                                                                                                                                                                                                                                                                                                                                                                                                                                                                                                                                                                                                                                                                                                                                      631339    
S5017718013****************************************************************************************************SA0563525100SA05635251#JPCA0102R171010191300001050604099999017101170919180156 10191323201             506040KP2000506040KP200010191323201 10059673  000000B015C3A6010000000000                                               　　　　　　　　　　　　　　　　　　　　　　31551718  00000000000000001      ｱｸﾘｾｯﾄAST-5221                                                        　　　　　　　　　　　　　　　　　　　　　　　　　　　　　　　　　　　           *CC04860001 ｶｼｭｰ ｵｵﾐﾔ                               　　　　　　　　　　　　　　　　　　　　M8961                                                         　　　　　　　　　　　　　　　　　　　　                                                    　　　　　　　　　　　　　　　　　　　　1710151710313171215215/031/D045    10000000361000KG 1 00000000000000000000000000 00000000000000000000000000*CC04860001 ｶｼｭｰ ｵｵﾐﾔ                               　　　　　　　　　　　　　　　　　　　　                                                                            　　　　　　　　　　　　　　　　　　　　　　　　　　　　　　　　　　　　　                                          0000000000          170921                                            　　　　　　　　　　　　　　　　　　　　　　0000000000000                                                                                                  0000000          00000010800000000000000000KG 00000010800000000001080000DR        0000000180000000000038988000000000000000000000031190000000042107011111 1000017092191664547                 91664547                                                   　　　　　　　　　　　　　　　　　　　　　　                                                    1                                                                                                                                                                                                                                                                                                                                                                                                                                                                                                                                                                                                                                                                                                                                                                                                                                                                                                                                                                                                                                                                                                                                                                                                                                                                                                                                                                                                                                                                                                                                                                                                                                                                                                                                                                                                                                                                                                                                                                                                                                                                                                                                                                                                                                                                                                                                                                                                                      631339    
S5017739454****************************************************************************************************SA0564956600SA05649566#JPCA0102R171010191300001050604099999017101170925180139 10191310371             506040SK1000506040SK100010191310371 10068920  000000B0159E85010000000000                                               　　　　　　　　　　　　　　　　　　　　　　31547212  00000000000000001      ｴﾎﾟﾐﾝ SP-006/CN/18                                                    　　　　　　　　　　　　　　　　　　　　　　　　　　　　　　　　　　　           *CG23420001 ﾀﾂﾐｼｮｳｶｲ                                　　　　　　　　　　　　　　　　　　　　4512286761                                                    　　　　　　　　　　　　　　　　　　　　                                                    　　　　　　　　　　　　　　　　　　　　1710151710313171215215/031/D045    20000006000000KG 1 00000000000000000000000000 00000000000000000000000000*CG23420001 ﾀﾂﾐｼｮｳｶｲ                                　　　　　　　　　　　　　　　　　　　　                                                                            　　　　　　　　　　　　　　　　　　　　　　　　　　　　　　　　　　　　　                                          0000000000          170926                                            　　　　　　　　　　　　　　　　　　　　　　0000000000000                                                                                                  0000000          00000000180000000000000000KG 00000000180000000000018000CN        0000000018000000000010800000000000000000000000008640000000011664011111 1000017092691666341                 91666341                                                   　　　　　　　　　　　　　　　　　　　　　　                                                    1                                                                                                                                                                                                                                                                                                                                                                                                                                                                                                                                                                                                                                                                                                                                                                                                                                                                                                                                                                                                                                                                                                                                                                                                                                                                                                                                                                                                                                                                                                                                                                                                                                                                                                                                                                                                                                                                                                                                                                                                                                                                                                                                                                                                                                                                                                                                                                                                                      631339    
S5017739465****************************************************************************************************SA0564956500SA05649565#JPCA0102R171010191300001050604099999017101170925180128 10191323201             506040KP2000506040KP200010191323201 10059673  000000B015DAD3010000000000                                               　　　　　　　　　　　　　　　　　　　　　　31554709  00000000000000001      ｱｸﾘｾｯﾄAST-5221                                                        　　　　　　　　　　　　　　　　　　　　　　　　　　　　　　　　　　　           *CC04860001 ｶｼｭｰ ｵｵﾐﾔ                               　　　　　　　　　　　　　　　　　　　　M9553                                                         　　　　　　　　　　　　　　　　　　　　                                                    　　　　　　　　　　　　　　　　　　　　1710151710313171215215/031/D045    10000000361000KG 1 00000000000000000000000000 00000000000000000000000000*CC04860001 ｶｼｭｰ ｵｵﾐﾔ                               　　　　　　　　　　　　　　　　　　　　                                                                            　　　　　　　　　　　　　　　　　　　　　　　　　　　　　　　　　　　　　                                          0000000000          170926                                            　　　　　　　　　　　　　　　　　　　　　　0000000000000                                                                                                  0000000          00000005400000000000000000KG 00000005400000000000540000DR        0000000180000000000019494000000000000000000000015595000000021053511111 1000017092691666293                 91666293                                                   　　　　　　　　　　　　　　　　　　　　　　                                                    1                                                                                                                                                                                                                                                                                                                                                                                                                                                                                                                                                                                                                                                                                                                                                                                                                                                                                                                                                                                                                                                                                                                                                                                                                                                                                                                                                                                                                                                                                                                                                                                                                                                                                                                                                                                                                                                                                                                                                                                                                                                                                                                                                                                                                                                                                                                                                                                                                      631339    
S5017694410****************************************************************************************************SA0563525100SA05635251#JPCA0102R171010191300001050604099999017101170919180156 10191323201             506040KP2000506040KP200010191323201 10059673  000000B015C3A6010000000000                                               　　　　　　　　　　　　　　　　　　　　　　31551718  00000000000000001      ｱｸﾘｾｯﾄAST-5221                                                        　　　　　　　　　　　　　　　　　　　　　　　　　　　　　　　　　　　           *CC04860001 ｶｼｭｰ ｵｵﾐﾔ                               　　　　　　　　　　　　　　　　　　　　M8961                                                         　　　　　　　　　　　　　　　　　　　　                                                    　　　　　　　　　　　　　　　　　　　　1710151710313171215215/031/D045    10000000361000KG 1 00000000000000000000000000 00000000000000000000000000*CC04860001 ｶｼｭｰ ｵｵﾐﾔ                               　　　　　　　　　　　　　　　　　　　　                                                                            　　　　　　　　　　　　　　　　　　　　　　　　　　　　　　　　　　　　　                                          0000000000          170921                                            　　　　　　　　　　　　　　　　　　　　　　0000000000000                                                                                                  0000000          00000010800000000000000000KG 00000010800000000001080000DR        0000000180000000000038988000000000000000000000031190000000042107011111 1000017092191664547                 91664547                                                   　　　　　　　　　　　　　　　　　　　　　　                                                    1                                                                                                                                                                                                                                                                                                                                                                                                                                                                                                                                                                                                                                                                                                                                                                                                                                                                                                                                                                                                                                                                                                                                                                                                                                                                                                                                                                                                                                                                                                                                                                                                                                                                                                                                                                                                                                                                                                                                                                                                                                                                                                                                                                                                                                                                                                                                                                                                                      631339    
S5017747296****************************************************************************************************SA0565215700SA05652157#JPCA0102R171010191300001050604099999017101170926180118 10191323203             506040EO1000506040EO100010191323203 10072596  000000B015C960010000000000                                               　　　　　　　　　　　　　　　　　　　　　　31552598  00000000000000001      TRAEG                                                                 　　　　　　　　　　　　　　　　　　　　　　　　　　　　　　　　　　　           *CD16160003 ｲｾｷｭｳ ﾐｼﾏ                               　　　　　　　　　　　　　　　　　　　　711                                                           　　　　　　　　　　　　　　　　　　　　                                                    　　　　　　　　　　　　　　　　　　　　1710151710313171215215/031/D045    20000000240000KG 1 00000000000000000000000000 00000000000000000000000000*C134250023 ｱｻﾋｶｾｲ ﾌｼﾞ                              　　　　　　　　　　　　　　　　　　　　                                                                            　　　　　　　　　　　　　　　　　　　　　　　　　　　　　　　　　　　　　                                          0000000000          170927                                            　　　　　　　　　　　　　　　　　　　　　　0000000000000                                                                                                  0000000          00000011250000000000000000KG 00000011250000000001125000DR        0000000225000000000027000000000000000000000000021600000000029160011111 1000017092791666678                 91666678                                                   　　　　　　　　　　　　　　　　　　　　　　                                                    1                                                                                                                                                                                                                                                                                                                                                                                                                                                                                                                                                                                                                                                                                                                                                                                                                                                                                                                                                                                                                                                                                                                                                                                                                                                                                                                                                                                                                                                                                                                                                                                                                                                                                                                                                                                                                                                                                                                                                                                                                                                                                                                                                                                                                                                                                                                                                                                                                      631339    
