S5017087851****************************************************************************************************SA0544102100SA05441021#JPCA0102R1710101913000010114876000001171011706300901282                        3040TSM2                A0001916    A1713201T000000005001531460000000000                                               ４ｔ車迄可パレット不／注ＮＯ．０５００１５３01092051481706201102000010  PS1  AT01G200CFEC                                                          Ｇ２００Ｃ　５００ｋｇフレコン　　　　　　　　　　　　　　　　　　　　 7621H6    A1713201                                            ニッポー　本社　　　　　　　　　　　　　                                                              　　　　　　　　　　　　　　　　　　　　                                                    　　　　　　　　　　　　　　　　　　　　17063017073131708311               10000000178000KG  200000000040000000000000000 00000000000000000000000000A1713201                                            ニッポー　本社　　　　　　　　　　　　　                                                                            氷野２－３－７　　　　　　　　　　　　　　　　　　　　　　　　　　　　　　27         5740062072-870-8866072-870-7610170630              170630                                            新ＬＯＴ試験成績書添付／ＡＭ着希望　　　　　0000000000000                               0910564156000010                                                   0000000          00000030000000000000006000KG 00000030000000000000000000BAG       0000000500000000000053400000000005126400000000041011000000055365111 11 206291706290811754126900001                   MC00                                             大東市　　　　　　　　　　　　　　　　　　　                                2017020001323100110 1                                                      　　　　　　　　　　　　　　　　　　　　　　 JPY  0910564156000010                                                                                                                                                                                                                                                                                                                                                                                                                                                                                                                                                                                                                                                                                                                                                                                                                                                                                                                                                                                                                                                                                                                                                                                                                                                                                                                                                                                                                                                                                                                                                                                                                                                                                                                                                                                                                                                                                                                                                                                                                                                                                                                                                                                                                                                                                              631435    
S5017087841****************************************************************************************************SA0544102200SA05441022#JPCA0102R1710101913000010114876000001171011706300901282                        3040TSM2                A0001916    A1713201T000000005001531480000000000                                               ４ｔ車迄可パレット不／注ＮＯ．０５００１５３01092051791706201105000010  PS2  AT03H350XFEC                                                          Ｈ３５０　５００ｋｇフレコン　　　　　　　　　　　　　　　　　　　　　 7614R3    A1713201                                            ニッポー　本社　　　　　　　　　　　　　                                                              　　　　　　　　　　　　　　　　　　　　                                                    　　　　　　　　　　　　　　　　　　　　17063017073131708311               10000000183000KG  200000000040000000000000000 00000000000000000000000000A1713201                                            ニッポー　本社　　　　　　　　　　　　　                                                                            氷野２－３－７　　　　　　　　　　　　　　　　　　　　　　　　　　　　　　27         5740062072-870-8866072-870-7610170630              170630                                            新ＬＯＴ試験成績書添付／ＡＭ着希望　　　　　0000000000000                               0910564157000010                                                   0000000          00000010000000000000002000KG 00000010000000000000000000BAG       0000000500000000000018300000000001756800000000014054000000018973411 11 206291706290811754127900001                   MC00                                             大東市　　　　　　　　　　　　　　　　　　　                                2017020001323200110 1                                                      　　　　　　　　　　　　　　　　　　　　　　 JPY  0910564157000010                                                                                                                                                                                                                                                                                                                                                                                                                                                                                                                                                                                                                                                                                                                                                                                                                                                                                                                                                                                                                                                                                                                                                                                                                                                                                                                                                                                                                                                                                                                                                                                                                                                                                                                                                                                                                                                                                                                                                                                                                                                                                                                                                                                                                                                                                              631435    
S5017077652****************************************************************************************************SA0544102300SA05441023#JPCA0102R1710101913000010114876000001171011706300901302                        3040TSM2                A0001917    A2129803T00000002906      0000000000                                               近藤様宛　ロット：７６２１Ｈ６　※７３０３Ｆ01092183291706261505000010  PS1  AT01G200C1RC                                                          Ｇ２００Ｃ　２５ｋｇ袋　　　　　　　　　　　　　　　　　　　　　　　　 7621H6    A2129803                                            三笠産業　本社　　　　　　　　　　　　　                                                              　　　　　　　　　　　　　　　　　　　　                                                    　　　　　　　　　　　　　　　　　　　　17063017073131708311               10000000306000KG  200000000040000000000000000 00000000000000000000000000A2129803                                            三笠産業　本社　　　　　　　　　　　　　                                                                            寺戸５３　　　　　　　　　　　　　　　　　　　　　　　　　　　　　　　　　29         63508170745-56-5581            170630              170630                                            　　　　　　　　　　　　　　　　　　　　　　0000000000000                               0910564190000010                                                   0000000          00000000250000000000001000KG 00000000250000000000000000BAG       0000000025000000000000765000000000073440000000000588000000000793211 11 206291706290811754128900001                   MC00                                             北葛城郡広陵町　　　　　　　　　　　　　　　                                2017020001324200110 1                                                      　　　　　　　　　　　　　　　　　　　　　　 JPY  0910564190000010                                                                                                                                                                                                                                                                                                                                                                                                                                                                                                                                                                                                                                                                                                                                                                                                                                                                                                                                                                                                                                                                                                                                                                                                                                                                                                                                                                                                                                                                                                                                                                                                                                                                                                                                                                                                                                                                                                                                                                                                                                                                                                                                                                                                                                                                                              631435    
S5017087903****************************************************************************************************SA0544102400SA05441024#JPCA0102R1710101913000010114876000001171011706300901272                        3040TSM2                A0001916    A1713201T000000005001533630000000000                                               ※空パレ空フレ引取願います！　　　　　　　　01092206101706271130000010  PS1  AT01MW1CXFFA                                                          ＭＷ１Ｃ　１ｔフレコン　　　　　　　　　　　　　　　　　　　　　　　　 70619ECB  A1713201                                            ニッポー　本社　　　　　　　　　　　　　                                                              　　　　　　　　　　　　　　　　　　　　                                                    　　　　　　　　　　　　　　　　　　　　17063017073131708311               10000000191000KG  200000000040000000000000000 000000000000000000000000000000136615                                          ニッポー　関東工場　　　　　　　　　　　                                                                            新井新田５０番地　　　　　　　　　　　　　　　　　　　　　　　　　　　　　11         34911460480-72-1113            170630              170630                                            新ＬＯＴ試験成績書添付／ＡＭ着希望　　　　　0000000000000                               0910564154000010                                                   0000000          00000080000000000000008000KG 00000080000000000000000000BAG       0000001000000000000152800000000014668800000000117350000000158423011 11 206291706290811750166900001                   MA00                                             加須市　　　　　　　　　　　　　　　　　　　                                2017020001322900110 1                                                      　　　　　　　　　　　　　　　　　　　　　　 JPY  0910564154000010                                                                                                                                                                                                                                                                                                                                                                                                                                                                                                                                                                                                                                                                                                                                                                                                                                                                                                                                                                                                                                                                                                                                                                                                                                                                                                                                                                                                                                                                                                                                                                                                                                                                                                                                                                                                                                                                                                                                                                                                                                                                                                                                                                                                                                                                                              631435    
S5017087994****************************************************************************************************SA0544443700SA05444437#JPCA0102R1710101913000010114876000001171011707030901272                        3040TSM1                A0001924    A1156800T0000000*         0000000000                                               ＡＭ着希望　　　　　　　　　　　　　　　　　01092108551706221025000010  PS1  AT01MW1DX1RA                                                          ＭＷ１Ｄ　２５ｋｇ袋　　　　　　　　　　　　　　　　　　　　　　　　　 70417ECB  A1156800                                            関プラスチック工業　　　　　　　　　　　          A0801700                                            沢井商会　　　　　　　　　　　　　　　　                                                    　　　　　　　　　　　　　　　　　　　　17063017073131710101               10000000222000KG  200000000060000000000000000 00000000000000000000000000A1156800                                            関プラスチック工業　　　　　　　　　　　                                                                            明生町２－７－１０　　　　　　　　　　　　　　　　　　　　　　　　　　　　21         501390405752-2-4352            170629              170629                                            　　　　　　　　　　　　　　　　　　　　　　0000000000000                               0910567897000010                                                   0000000          00000005000000000000020000KG 00000005000000000000000000BAG       0000000025000000000011100000000001043400000000008347000000011268711 11 206291706290811755416000010                   S521                                             関市　　　　　　　　　　　　　　　　　　　　                                2017020001334300110 1                                                      　　　　　　　　　　　　　　　　　　　　　　 JPY  0910567897000010                                                                                                                                                                                                                                                                                                                                                                                                                                                                                                                                                                                                                                                                                                                                                                                                                                                                                                                                                                                                                                                                                                                                                                                                                                                                                                                                                                                                                                                                                                                                                                                                                                                                                                                                                                                                                                                                                                                                                                                                                                                                                                                                                                                                                                                                                              631435    
S5017087985****************************************************************************************************SA0544443800SA05444438#JPCA0102R1710101913000010114876000001171011707030901282                        3040TSM2                A0001916    A1713201T000000005001533280000000000                                               パレット不要（フレコン時）４Ｔ車指定　　　　01092175211706261310000010  PS1  AT01G200CFWC                                                          Ｇ２００Ｃ　１ｔフレコン＿ＦＷ　　　　　　　　　　　　　　　　　　　　 7621H6    A1713201                                            ニッポー　本社　　　　　　　　　　　　　                                                              　　　　　　　　　　　　　　　　　　　　                                                    　　　　　　　　　　　　　　　　　　　　17063017073131708311               10000000178000KG  200000000040000000000000000 000000000000000000000000000000092395                                          テラヨシ　　　　　　　　　　　　　　　　                                                                            寺戸３１２－１　　　　　　　　　　　　　　　　　　　　　　　　　　　　　　29         635081707455-6-4730            170703              170703                                            ＡＭ着希望　　　　　　　　　　　　　　　　　0000000000000                               0910567953000010                                                   0000000          00000020000000000000002000KG 00000020000000000000000000BAG       0000001000000000000035600000000003417600000000027341000000036910111 11 206301706300811757227900001                   MC00                                             北葛城郡広陵町　　　　　　　　　　　　　　　                                2017020001337900110 1                                                      　　　　　　　　　　　　　　　　　　　　　　 JPY  0910567953000010                                                                                                                                                                                                                                                                                                                                                                                                                                                                                                                                                                                                                                                                                                                                                                                                                                                                                                                                                                                                                                                                                                                                                                                                                                                                                                                                                                                                                                                                                                                                                                                                                                                                                                                                                                                                                                                                                                                                                                                                                                                                                                                                                                                                                                                                                              631435    
S5017087976****************************************************************************************************SA0544443900SA05444439#JPCA0102R1710101913000010114876000001171011707030901282                        3040TSM2                A0001916    A1713201T000000005001533280000000000                                               パレット不要（フレコン時）４Ｔ車指定　　　　01092175271706261311000010  PS2  AT03H350XFWC                                                          Ｈ３５０　１ｔフレコン＿ＦＷ　　　　　　　　　　　　　　　　　　　　　 7614R3    A1713201                                            ニッポー　本社　　　　　　　　　　　　　                                                              　　　　　　　　　　　　　　　　　　　　                                                    　　　　　　　　　　　　　　　　　　　　17063017073131708311               10000000183000KG  200000000040000000000000000 000000000000000000000000000000092395                                          テラヨシ　　　　　　　　　　　　　　　　                                                                            寺戸３１２－１　　　　　　　　　　　　　　　　　　　　　　　　　　　　　　29         635081707455-6-4730            170703              170703                                            ＡＭ着希望　　　　　　　　　　　　　　　　　0000000000000                               0910567954000010                                                   0000000          00000010000000000000001000KG 00000010000000000000000000BAG       0000001000000000000018300000000001756800000000014054000000018973411 11 206301706300811757229900001                   MC00                                             北葛城郡広陵町　　　　　　　　　　　　　　　                                2017020001338000110 1                                                      　　　　　　　　　　　　　　　　　　　　　　 JPY  0910567954000010                                                                                                                                                                                                                                                                                                                                                                                                                                                                                                                                                                                                                                                                                                                                                                                                                                                                                                                                                                                                                                                                                                                                                                                                                                                                                                                                                                                                                                                                                                                                                                                                                                                                                                                                                                                                                                                                                                                                                                                                                                                                                                                                                                                                                                                                                              631435    
